:020000040800F2
:10000000900A0020191800085D0300085F0300082B
:1000100063030008670300086B030008000000008A
:100020000000000000000000000000006F03000856
:100030007103000800000000730300087503000846
:100040003318000833180008331800083318000864
:100050003318000833180008551300083318000837
:100060003318000833180008331800083318000844
:1000700021630008331800083318000833180008FB
:100080003318000833180008331800082F09000837
:100090000109000833180008331800083318000855
:1000A0003318000833180008331800083318000804
:1000B000331800082D0D0008331800083318000805
:1000C00033180008331800083318000833180008E4
:1000D00033180008331800083318000833180008D4
:1000E00033180008331800083318000833180008C4
:1000F00033180008331800083318000833180008B4
:1001000033180008331800083318000833180008A3
:100110003318000833180008331800083318000893
:100120003318000833180008331800083318000883
:100130003318000833180008331800083318000873
:100140003318000833180008331800083318000863
:10015000331800083318000833180008E1160008A7
:100160003318000833180008331800083318000843
:100170003318000833180008331800083318000833
:100180003318000833180008331800083318000823
:100190003318000833180008331800083318000813
:1001A00000000000000000003318000800F002F812
:1001B00000F03CF80AA090E8000C82448344AAF1C5
:1001C0000107DA4501D100F031F8AFF2090EBAE8C3
:1001D0000F0013F0010F18BFFB1A43F0010318477B
:1001E000046F0000246F0000103A24BF78C878C163
:1001F000FAD8520724BF30C830C144BF04680C602D
:10020000704700000023002400250026103A28BF74
:1002100078C1FBD8520728BF30C148BF0B60704778
:100220001FB506F04AFF1FBD10B510BD06F0A7F9B7
:100230001146FFF7F5FF00F009F806F0C5F903B421
:10024000FFF7F2FF03BC01F0E7F900004FF4A060F4
:1002500001F002FBB42001F05DF94FF4E13001F050
:10026000E9F900F0DAF942F22731042000F02CFD20
:1002700004F031FB01F0B6F805F0A0FF05F079FDC0
:1002800004F0B6FD00F0E2FC00F04EFA00F00AFACD
:1002900005F0F8F99FED243B9FED252B9FED261BE4
:1002A0009FED270B284804F01BFA9FED1F3B9FEDA5
:1002B000202B9FED211B9FED220B244804F010FA08
:1002C0009FED193B9FED1A2B9FED1B1B9FED1C0B08
:1002D0001F4804F005FA9FED143B9FED152B9FED91
:1002E000161B9FED170B1B4804F0FAF91E2001F0B6
:1002F00073F901F06BFA04F026FB012004F0CAFA4E
:1003000004F0CEFA0EE0002000F0E2F91249087085
:1003100008460078012802D10020087000BF00BF05
:1003200005F0AFFDEFE700000000000000C06240F4
:100330000000000000000000000000000000E03F9E
:100340000000000000005E40A0010020E801002045
:10035000300200207802002024000020704700BFF7
:10036000FEE700BFFEE700BFFEE700BFFEE7704705
:1003700070477047704700000CB500200190009056
:100380008348006840F480308149086000BF80489D
:10039000006800F4003000900198401C0190009823
:1003A00018B90198B0F5A04FF1D17948006800F470
:1003B000003010B10120009001E000200090009872
:1003C000012860D172484030006840F08050704988
:1003D000403108606F48006840F440406D49086053
:1003E0006B48083000686A490831086008460068B0
:1003F00040F4004008600846006840F4A0500860DF
:100400006548091F0860081F006840F08070091FD8
:10041000086000BF5E48006800F000700028F9D056
:100420005C48006840F480305A49086000BF594871
:10043000406800F480300028F9D05648006840F445
:1004400000305449086000BF5248406800F4003052
:100450000028F9D040F20570504908604C48083037
:10046000006820F003004A49083108600846006827
:1004700040F00200086000BF45480830006800F006
:100480000C000828F8D10CBD10B54548006840F4B0
:100490007000434908603E48006840F001003C4954
:1004A000086000203A4908310860394800683D4931
:1004B0000840374908603C48091D0860081F00686B
:1004C00020F48020091F0860002031490C310860A9
:1004D000FFF752FF4FF0006031498039086010BDCE
:1004E00070B500200022022300240221284D083587
:1004F0002D6805F00C0020B1042806D0082834D15E
:1005000007E02A4D2A4E356033E02A4D284E3560EB
:100510002FE01F4D2D1D2D68C5F380541C4D2D1D42
:100520002D6805F03F0154B1224DB5FBF1F5184E91
:10053000361D3668C6F3881605FB06F209E01B4D2A
:10054000B5FBF1F5124E361D3668C6F3881605FB6D
:1005500006F20F4D2D1D2D68C5F301456D1C6B0076
:10056000B2FBF3F5124E356003E0104D104E3560CE
:1005700000BF00BF064D08352D68C5F303150E4EAC
:10058000705D0B4D2D68C540094E356070BD000093
:1005900000380240007000400C5A4007003C024006
:1005A00088ED00E0FFFFF6FE103000240024F40088
:1005B00000000020001BB70004000020012808D123
:1005C0000121324A116032490978324AC2F8B81220
:1005D00011E0022808D12E4909782C4A1160012126
:1005E0002C4AC2F8B81206E00021284A1160012105
:1005F000284AC2F8B812284909684FF47A72B1FB48
:10060000F2F302FB131139B92149097809B9012123
:1006100000E000211E4A117070471CB50121202006
:1006200001F0B1FC0121102001F0ADFC4FF480403D
:10063000009001208DF8040000208DF806000320B2
:100640008DF8050001208DF807006946134801F078
:10065000F9F98020009001208DF8040000208DF829
:10066000060003208DF8050001208DF8070069467B
:100670000B4801F0E7F94FF48041084801F060FAB7
:100680008021074801F05AFA1CBD00009C0242423A
:1006900014000020008042421C0000200014024090
:1006A000001002401CB50121082001F06CFC4FF441
:1006B0008060009000208DF8040003208DF8050074
:1006C00002208DF807006946154801F0BBF91CBDF2
:1006D00010B5044614B10120124908701148007881
:1006E00098B14FF480610E4801F00EFA68B90A2003
:1006F00000F072FF00200B4908704FF48061084839
:1007000001F002FA50B9012010BD4FF48061044895
:1007100001F0FAF910B90120024908700020F3E74E
:10072000000C02401500002000B58BB0012108200C
:1007300001F029FC0121480601F06CFC032009901E
:1007400002208DF8280000208DF82A0003208DF863
:10075000290001208DF82B0009A9924801F072F9B7
:10076000092200218F4801F0F8F9092201218D4862
:1007700001F0F3F900208DF81E008DF81F008DF8B0
:10078000200001208DF8210000208DF822008DF836
:1007900023008DF81A008DF81B0007208DF81C002F
:1007A00005208DF81D000320ADF8180006A97E482D
:1007B00001F0C9FF00208DF812008DF81300012010
:1007C0008DF814000020ADF80800ADF80A00ADF86F
:1007D0000C00ADF80E00ADF8100001208DF81500EA
:1007E00002A802F03AF8012202216F4802F034FB1D
:1007F00014208DF8040001208DF8050000208DF8EC
:10080000060001208DF8070001A801F02AF8132046
:100810008DF8040000208DF8050001208DF80600F9
:100820008DF8070001A801F01CF80BB000BDC18ACB
:10083000428A891A09B28182B0F9141041F25452E5
:10084000914204DD018B491C09B2018308E0B0F933
:100850001410564A914203DA018B491E09B20183F2
:10086000418AC182704710B504460B46187BD97A7D
:1008700040EA012000B260822046FFF7D8FF10BD99
:100880008B7B4A7B43EA022212B24282704710B548
:10089000044622460021444802F0C3F92068A0F231
:1008A000012030B101280DD0022814D0032824D112
:1008B0001AE021463E48FFF7E3FF21463D48FFF797
:1008C000D2FF1BE021463C48FFF7DAFF21463B48B8
:1008D000FFF7C9FF12E021463948FFF7D1FF214653
:1008E0003848FFF7C0FF09E021463748FFF7C8FF47
:1008F00021463648FFF7B7FF00E000BF00BF10BD3C
:1009000010B50221284802F00FFB78B104212648D7
:1009100002F0A5FB2E49244802F0E3FA2D4A0021FB
:10092000214802F07EF92B48FFF7B1FF10BD10B54A
:1009300001211D4802F0F8FA18B101211A4802F00D
:100940008EFB10BDF0B585B004460D4616461F4619
:100950004FF40070009000208DF808008DF8090019
:1009600008208DF80A00200A8DF80B00E1B28DF8FE
:100970000C10290A8DF80D10E9B28DF80E10310A0D
:100980008DF80F10F1B28DF81010390A8DF8111092
:10099000F9B28DF812106946034802F04DF805B01F
:1009A000F0BD0000000C024000640040ACEAFFFF14
:1009B000BC00002024010020D60000203E010020C1
:1009C000F0000020580100200A01002072010020E0
:1009D000080000328C01002030B58BB004460D4673
:1009E0000121082001F016FB0121802001F0CBFA43
:1009F00002220A21B04801F0B0F802220B21AE48D1
:100A000001F0ABF802220C21AB4801F0A6F84FF43C
:100A1000E050099002208DF8280003208DF829006D
:100A200000208DF82A0001208DF82B0009A9A2488A
:100A300001F008F8A8B2ADF818000020ADF81A00CF
:100A40000794ADF8200006A99C4802F008FC60203D
:100A5000ADF804000120ADF806000220ADF810004A
:100A600001A9964802F090FC01A9944802F0C5FC47
:100A700001A9924802F00EFD0821904802F011FEF3
:100A800008218E4802F016FE08218C4802F01FFE55
:100A900001218A4802F04EFC0121884802F068FCDE
:100AA00040F2DC51854802F0C8FD40F2DC51834839
:100AB00002F0C5FD40F2DC51804802F0C2FD0BB0EF
:100AC00030BD10B5044603F0E8FE012806D144F617
:100AD0002060011B7A4802F0B6FD04E044F64401B0
:100AE000774802F0B0FD10BD10B5044644F6206012
:100AF000011B734802F0A5FD10BD10B5044603F0BC
:100B0000CCFE012806D144F62060011B6C4802F09F
:100B100096FD04E044F6C831694802F090FD10BD2E
:100B200010B5044603F0B9FE012806D144F6206052
:100B3000011B634802F081FD04E044F64401604873
:100B400002F07BFD10BD30B58BB004460D4601218F
:100B5000042001F05FFA0121082001F014FA0222BA
:100B60000C21584800F0F9FF02220D21554800F0F1
:100B7000F4FF02220E21534800F0EFFF02220F2162
:100B8000504800F0EAFF4FF47040099002208DF8C1
:100B9000280003208DF8290000208DF82A0001206C
:100BA0008DF82B0009A9474800F04CFFA8B2ADF81A
:100BB00018000020ADF81A000794ADF8200006A92F
:100BC0003F4802F04CFB6020ADF804000120ADF876
:100BD00006000220ADF8100001A9394802F0D4FB4C
:100BE00001A9374802F009FC01A9354802F052FC7E
:100BF00001A9334802F0B4FC0821314802F051FD4C
:100C000008212F4802F056FD08212D4802F05FFD13
:100C100008212B4802F064FD0121294802F08AFBDB
:100C20000121274802F0A4FB40F2DC50FFF778FFD7
:100C30004FF41670FFF761FF4FF4E160FFF754FFC8
:100C400040F2DC50FFF73DFF0BB030BD10B559212D
:100C500044F61F60FFF777FF592140F6C310FFF7F6
:100C6000BBFE10BD10B5044603F017FE012812D1DB
:100C700040F6C410011B114802F0DFFC40F6C4101E
:100C8000011B0E4802F0DBFC40F6C410011B0B48B0
:100C900002F0D7FC0EE040F2DC51084802F0CDFC37
:100CA00040F2DC51054802F0CAFC40F2DC51034836
:100CB00002F0C7FC10BD0000001C0240000C004008
:100CC00000080040000C02407FB504460D46601C41
:100CD0000A2191FBF0F0FE4908700121022001F089
:100CE00099F90294ADF804500020ADF80600ADF873
:100CF0000C0001A9F74802F0B2FA01221146F548AA
:100D000002F04EFF0121F34802F032FB1D208DF866
:100D1000000001208DF8010003208DF80200012061
:100D20008DF80300684600F09CFD7FBD2DE9F04181
:100D30002DED068B0121E74802F049FF01287CD107
:100D4000E5480068E2490978B0FBF1F201FB1200C6
:100D5000002873D103F0A1FD0446FFF72FFC04F037
:100D600007FA04F02EFADD48B0F91830DC48B0F983
:100D70001220DC48B0F90010DB4803F0CEFCDB4861
:100D8000B0F91830DA48B0F91220DA48B0F900109A
:100D9000D94803F0C2FCD948B0F91830D848B0F9A6
:100DA0001220D848B0F90010D74803F0B6FCD74855
:100DB000B0F91830D648B0F91220D648B0F9001072
:100DC000D54803F0AAFC03F041FF03F066FD0128BB
:100DD00003D003F062FD02287DD1D048806EB0F5CB
:100DE000BE7F79DDCC4890ED082BB0EE420AF0EEE4
:100DF000620AC54890ED082BB0EE421AF0EE621A76
:100E000053EC102B51EC110B05F026FC41EC1A0BA6
:100E1000B54890ED081BB0EE410AF0EE610A53ECC4
:100E2000102B51EC1A0B05F0EDFF41EC190BB248F9
:100E300090ED081BB0EE410A01E05CE228E2F0EE22
:100E4000610A53EC102B51EC190B05F0DBFF41EC60
:100E5000180B9FEDB30B53EC102B05F09DFF06D242
:100E600000231A4619461846FFF76CFDEEE1AE481E
:100E700090ED020A10EE101A084606F0ADF841ECAB
:100E8000190BA54890ED081BB0EE410AF0EE610A7F
:100E900053EC102B51EC190B05F080FE41EC180BB4
:100EA00005F0E6FD04B2A04890ED020A10EE101A1B
:100EB000084606F091F841EC190B934890ED081B99
:100EC000B0EE410AF0EE610A53EC102B51EC190B15
:100ED00005F064FE01E0B0E143E041EC180B05F0E1
:100EE000C7FD05B2914890ED020A10EE101A0846AF
:100EF00006F072F841EC190B7F4890ED081BB0EE3C
:100F0000410AF0EE610A53EC102B51EC190B05F07D
:100F100045FE41EC180B05F0ABFD06B2834890EDA1
:100F2000020A10EE101A084606F056F841EC190BAA
:100F30006D4890ED081BB0EE410AF0EE610A53ECEB
:100F4000102B51EC190B05F029FE41EC180B05F0A4
:100F50008FFD07B223462A4631463846FFF7F2FC9A
:100F600074E16E48806E10F5117F7DDA6A4890ED6D
:100F7000082BB0EE420AF0EE620A634890ED082BAF
:100F8000B0EE421AF0EE621A53EC102B51EC110B3A
:100F900005F062FB41EC1A0B534890ED081BB0EED4
:100FA000410AF0EE610A53EC102B51EC1A0B05F0DC
:100FB00029FF41EC190B504890ED081BB0EE410A97
:100FC000F0EE610A53EC102B51EC190B05F01AFFEF
:100FD00041EC180B9FED560B53EC102B05F0A2FDC6
:100FE00006D200231A4619461846FFF7ABFC2DE13E
:100FF0004D4890ED020A10EE101A084605F0ECFF7D
:1010000041EC190B444890ED081BB0EE410AF0EE9C
:10101000610A53EC102B51EC190B05F0BFFD41ECAC
:10102000180B05F025FD04B23F4890ED020A10EEC2
:10103000101A084605F0D0FF41EC190B324890ED2C
:10104000081BB0EE410AF0EE610A53EC102B51EC94
:10105000190B05F0A3FD41EC180B05F009FD05B2D5
:10106000324890ED020A00E070E010EE101A0846D7
:1010700005F0B2FF41EC190B1F4890ED081BB0EED4
:10108000410AF0EE610A53EC102B51EC190B05F0FC
:1010900085FD41EC180B05F0EBFC06B2234890ED02
:1010A000020A10EE101A084605F096FF41EC190BE3
:1010B0000D4890ED081BB0EE410AF0EE610A53ECCA
:1010C000102B51EC190B05F069FD41EC180B33E0C6
:1010D00018000020000400401C0000202401002013
:1010E000BC00002044000020A00100203E010020A0
:1010F000D600002046000020E80100205801002012
:10110000F000002048000020300200207201002082
:101110000A0100204A000020780200203403002049
:101120000000000000C07240F0020020E002002039
:101130000000000000C072C005F09AFC07B2234610
:101140002A4631463846FFF7FDFB7FE06E4890EDBA
:10115000020A10EE101A084605F03EFF41EC190B8A
:101160006A4890ED081BB0EE410AF0EE610A53ECBC
:10117000102B51EC190B05F011FD41EC180B05F08B
:1011800077FC04B2604890ED020A10EE101A08468F
:1011900005F022FF41EC190B5D4890ED081BB0EE05
:1011A000410AF0EE610A53EC102B51EC190B05F0DB
:1011B000F5FC41EC180B05F05BFC05B2554890EDD1
:1011C000020A10EE101A084605F006FF41EC190B52
:1011D000514890ED081BB0EE410AF0EE610A53EC65
:1011E000102B51EC190B05F0D9FC41EC180B05F054
:1011F0003FFC06B2474890ED020A10EE101A08466E
:1012000005F0EAFE41EC190B444890ED081BB0EEE6
:10121000410AF0EE610A53EC102B51EC190B05F06A
:10122000BDFC41EC180B05F023FC07B223462A460F
:1012300031463846FFF786FB08E003F02EFB28B95D
:1012400000231A4619461846FFF77CFB334890EDF9
:10125000081BB0EE410AF0EE610A51EC100B05F0EC
:1012600007FC00EE100AB8EEC00A2A48D0ED020AC8
:1012700020EE200ABDEEC00A294880ED000A294868
:101280000078012804D128480078401C26490870BD
:101290002648007800EB8000400025490968B1FB32
:1012A000F0F200FB121058B9224800782249097860
:1012B00008432249087008460178214801F01AF9CC
:1012C00003F0EBFA012811D11E49087904F097FBCD
:1012D0001D4AD168107C03F09DFF03F0DDFE1B4A20
:1012E000D168107C03F0DBFF03F0FFFE10480068BC
:1012F000401C0F4908600121154802F079FCBDEC43
:10130000068BBDE8F0810000F0020020780200208A
:1013100030020020E0020020E8010020A0010020AF
:10132000200000204D0000204E000020180000206A
:101330001C0000209100002090000020920000205E
:10134000001401407E000020000300201403002050
:101350000004004010B50A2000F03EF900201749B3
:101360000870012002F09FFD10BD0EB5FFF79AF93D
:101370000121880300F05FFE0A21032000F067FFCF
:101380000120009000208DF804000C208DF805004D
:1013900001208DF80600684602F014FD06208DF845
:1013A000080000208DF8090002208DF80A000120B5
:1013B0008DF80B0002A800F054FA0EBD4C0000207E
:1013C00010B50446514800884FF6C77108404F4990
:1013D0000880084600882043088001214B4802F01D
:1013E000B1FE10BD00B587B00121080500F023FE55
:1013F0004FF46070059002208DF8180000208DF8E1
:101400001A0003208DF8190000208DF81B0005A993
:101410003F4800F017FB4020059001208DF8180090
:1014200000208DF81A0003208DF8190000208DF897
:101430001B0005A9364800F005FB052207213448AA
:1014400000F08BFB05220921314800F086FB0522C4
:1014500008212F4800F081FB0121080500F040FE23
:1014600000214FF4801000F03BFE0020ADF800009A
:101470004FF48270ADF802000020ADF80400ADF822
:101480000600ADF808004FF40070ADF80A003020F7
:10149000ADF80C000020ADF80E000A20ADF81000E9
:1014A00069461A4802F054FD0121184802F04AFE2C
:1014B0003020FFF785FF07B000BD70B50546012657
:1014C000002422E0012E0FD10221104802F004FF77
:1014D00050B1002401E0601CC4B2C82CFBDB2946DB
:1014E0000A4802F0B0FE00267EB90121074802F04A
:1014F000F3FE50B1002401E0601CC4B2C82CFBDB39
:10150000024802F09DFEC0B270BDDBE70050014012
:101510000014024010B504466FF0040000F0EEF92C
:10152000E11704EB5171C1F3C701394A117010463C
:10153000007800EB4001C1EBC0104FF6FF7101EAEB
:10154000C0003449088010BD0146314A12784A4330
:101550004FF0E0235A6100229A611A46126942F064
:1015600001021A6100BF4FF0E022106900F0010291
:101570001AB100F48032002AF5D04FF0E02212694F
:1015800022F001024FF0E0231A6100229A617047B5
:101590000146204A12884A434FF0E0235A61002254
:1015A0009A611A46126942F001021A6100BF4FF0B7
:1015B000E022106900F001021AB100F48032002A22
:1015C000F5D04FF0E022126922F001024FF0E02343
:1015D0001A6100229A61704770B504464FF4077093
:1015E00094FBF0F0C6B24FF4077094FBF0F100FBEF
:1015F000114085B205E04FF40770FFF7C9FF701E78
:10160000C6B2002EF7D115B12846FFF7C1FF70BD55
:101610002600002028000020014600BF704700BFC0
:10162000754A128802F04002002AF9D0C2B2724B09
:101630009A80704710B588B004460121402000F020
:10164000A2FC0121202000F0F6FC082209216B48B1
:1016500000F083FA08220E21684800F07EFA4FF469
:101660008440069002208DF81C0000208DF81E009A
:1016700002208DF81D0001208DF81F0006A95F488B
:1016800000F0E0F94FF4E13001900020ADF80800DF
:10169000ADF80A00ADF80C000C20ADF80E000020EB
:1016A000ADF8100001A9564800F071FE0121544820
:1016B00000F0F5FE47208DF8140000208DF815008D
:1016C0008DF8160001208DF8170005A800F0C9F864
:1016D000012240F225514A4800F097FF08B010BDA2
:1016E00010B540F22551464800F0CAFF00286CD0E2
:1016F000434800F003FF4349087003F0CEF8012887
:1017000063D140480178404803F0DAFF3E49C87988
:1017100004F009F83C48C07901282CD13B480079F5
:1017200080B93949C87804F050F83749887804F00E
:1017300069F83549887904F07CF83349487904F030
:1017400095F80FE03049887904F03FF82E49487940
:1017500004F058F82C49C87804F06BF82A498878C6
:1017600004F084F82849087804F097F82649487866
:1017700004F0ACF823E024498979234AD27841EA7D
:10178000020004F022F8204949791F4A927841EA80
:10179000020004F037F81C49C9781B4A927941EAE3
:1017A000020004F046F818498978174A527941EA4C
:1017B000020004F05BF81449087804F06EF812494E
:1017C000087904F0B7F804F0F6F810BD0D48007879
:1017D00080B100BFBFF34F8F0D48006800F4E06098
:1017E0000C490843001D0A490860BFF34F8F00BF32
:1017F00000BFFEE7704700000010014000180240E3
:1018000000140140300000209800002084000020D7
:101810000CED00E00000FA05094880470948004740
:10182000FEE7FEE7FEE7FEE7FEE7FEE7FEE7FEE790
:10183000FEE7FEE704480549054A064B70470000ED
:1018400089040008AD01000890040020900A0020DF
:10185000900600209006002032490143324A116070
:10186000704770B5002100230F22C4781CB32E4CA2
:10187000246804F4E064C4F5E064C4F30721C1F112
:101880000404E3B20A4144789C40E1B284781440F5
:1018900021430C07210E254C05786155047804F08E
:1018A0001F050124AC4005786D11AD0005F1E02560
:1018B000C5F8004109E0047804F01F050124AC409C
:1018C0001B4D0678761145F8264070BD194A0A402E
:1018D0000243154B1B1F1A60704739B1124A121D83
:1018E00012680243104B1B1D1A6006E00E4A121DBF
:1018F000126882430C4B1B1D1A607047042808D1E4
:101900004FF0E021096941F004014FF0E02211613C
:1019100007E04FF0E021096921F004014FF0E022D7
:10192000116170470000FA050CED00E000E400E0F2
:1019300080E100E080FFFF1F10B504469848844214
:1019400008D10121084600F087FB0021012000F0AA
:1019500083FB76E09348844208D10121022000F005
:101960007BFB0021022000F077FB6AE08E48844276
:1019700008D10121042000F06FFB0021042000F0B9
:101980006BFB5EE08948844208D10121082000F009
:1019900063FB0021082000F05FFB52E08448844292
:1019A00008D10121102000F057FB0021102000F089
:1019B00053FB46E07F48844208D10121202000F0FB
:1019C0004BFB0021202000F047FB3AE07A4884429C
:1019D00008D10121402000F03FFB0021402000F011
:1019E0003BFB2EE07548844208D10121802000F0A5
:1019F00033FB0021802000F02FFB22E0704884425E
:101A000008D10121801500F027FB0021A01500F06E
:101A100023FB16E06B48844208D10121401500F0F9
:101A20001BFB0021601500F017FB0AE066488442AA
:101A300007D10121001500F00FFB0021201500F057
:101A40000BFB10BDF0B50A4600210023002400BFA7
:101A50003DE0012505FA01F3156805EA03049C42FF
:101A600034D105684F000326BE40B54305601579A3
:101A70004E00B5400668354305601579012D02D04A
:101A80001579022D16D185684F000326BE40B54357
:101A9000856055794E00B540866835438560456858
:101AA00001268E40B5434560456896798E40B6B2B2
:101AB00035434560C5684F000326BE40B543C56049
:101AC000D5794E00B540C6683543C560491C10291C
:101AD000BFD3F0BD4FF6FF7101600021017141716C
:101AE0008171C171704708B54FF480320092009A3D
:101AF0000A430092009AC261C161009AC261C26940
:101B00000092C269009208BD0246002013690B4092
:101B10000BB1012000E0002070470146086980B247
:101B200070470246002053690B400BB1012000E0D2
:101B3000002070470146486980B2704701837047B2
:101B4000418370470AB1018300E0418370474161DE
:101B5000704742694A4042617047F0B50023002453
:101B60004D07ED0E02FA05F3CE1000F1200555F8F1
:101B700026504E07F70E0F26BE40B543CF1000F19A
:101B8000200646F82750CE1000F1200555F82650C3
:101B900045EA0304CE1000F1200545F82640F0BDCB
:101BA000000002400004024000080240000C024015
:101BB000001002400014024000180240001C0240C5
:101BC000002002400024024000280240F64800683D
:101BD00040F00100F44908600020F3490831086032
:101BE000F1480068F1490840EF490860F048091DD4
:101BF0000860F048EC4984310860ED481038091D50
:101C00000860E948006820F48020E7490860002067
:101C1000E5490C310860E4498C31086070470121C6
:101C2000E14A921C117011460870704710B50146C8
:101C30000022002300204A11012A02D1DA4C236835
:101C400008E0022A03D1D84C7034236802E0D64C55
:101C50007434236801F01F02012494401C400CB12D
:101C6000012000E0002010BD38B5002000900024C5
:101C7000002500BF3120FFF7D9FF05460098401C22
:101C800000900098B0F5A04F01D0002DF2D0312087
:101C9000FFF7CCFF08B1012400E00024204638BD46
:101CA00001460020C04A106820F0F80040EAC10058
:101CB00010607047C049086070470021BA4A70320E
:101CC00011701170012802D004280AD104E001210A
:101CD000B54A7032117005E00521B34A70321170B7
:101CE00000E000BF00BF7047B4490860704770B59E
:101CF000049C41EA82150126C6EB530645EA0645D7
:101D0000054345EA0465A84E361D356070BDAA49F5
:101D10000866704710B5830143EA016343EA027322
:101D2000A14C8434236010BDA3498866704710B568
:101D3000830143EA016343EA02739B4C88342360C6
:101D400010BD9D49086770479B49C86470470246AB
:101D50000020954B0833186820F0EC6042EA01033C
:101D60001843914B083318607047024600208E4B91
:101D70000833186820F0784042EA010318438A4B80
:101D800008331860704701460020874A08321068FF
:101D900020F0030008431060704783480830006853
:101DA00000F00C007047014600207F4A083210689E
:101DB00020F0F000084310607047014600207A4A86
:101DC0000832106820F4E050084310607047014664
:101DD0000020754A0832106820F4604040EAC100D3
:101DE00010607047F0B50021002200240225002673
:101DF00002236D4F08373F6807F00C0121B1042919
:101E000005D0082937D105E06D4F076036E06D4FEA
:101E1000076033E0644F3F1D3F68C7F38056624F51
:101E20003F1D3F6807F03F036EB1664FB7FBF3F706
:101E3000DFF874C10CF1040CDCF800C0CCF3881C92
:101E400007FB0CF40CE05E4FB7FBF3F7DFF858C16B
:101E50000CF1040CDCF800C0CCF3881C07FB0CF47C
:101E6000514F3F1D3F68C7F301477F1C7D00B4FB06
:101E7000F5F7076002E0524F076000BF00BF4A4F0E
:101E800008373F6807F0F00109094F4F7A5C07688F
:101E9000D7404760444F08373F6807F4E051890A4C
:101EA000494F7A5C4768D74087603F4F08373F68A3
:101EB00007F46041490B444F7A5C4768D740C760DC
:101EC000F0BD002100F44072B2F5407F0AD1364ADD
:101ED0000832116821F4F8113C4A02401143324A99
:101EE00008321160304A70321268C0F30B031A4393
:101EF0002D4B70331A607047304944390860704781
:101F00002E494039086070473149086070470146E2
:101F10000020254A8C32106820F01F004A1E104312
:101F2000214A8C3210607047014600201E4A8C32D4
:101F3000106820F4F8504A1E40EA02201A4A8C32F7
:101F40001060704701460020174A8C32106820F458
:101F5000401008431060704701460020124A8C323E
:101F6000106820F4400008431060704701460020CC
:101F70000D4A8C32106820F44030084310607047DE
:101F800014490860704739B1074A30321268024379
:101F9000054B30331A6006E0034A30321268824340
:101FA000014B30331A60704700380240FFFFF6EAF9
:101FB000103000240030002000004742800E4742CD
:101FC0000024F400001BB70031000020FFFCFF0FCD
:101FD0005C014742E011474229B1934A126802432B
:101FE000914B1A6004E0904A126882438E4B1A604B
:101FF000704739B18C4A121D126802438A4B1B1D6F
:102000001A6006E0884A121D12688243864B1B1D27
:102010001A60704739B1844A0C3212680243824B0D
:102020000C331A6006E0804A0C32126882437E4B01
:102030000C331A60704739B17B4A10321268024380
:10204000794B10331A6006E0774A103212688243E7
:10205000754B10331A60704739B1734A243A1268CD
:102060000243714B243B1A6006E06F4A243A12681F
:1020700082436D4B243B1A60704739B16A4A203A5B
:1020800012680243684B203B1A6006E0664A203A19
:1020900012688243644B203B1A60704739B1624A30
:1020A0001C3A12680243604B1C3B1A6006E05E4A11
:1020B0001C3A126882435C4B1C3B1A60704739B172
:1020C000594A143A12680243574B143B1A6006E00F
:1020D000554A143A12688243534B143B1A607047B6
:1020E00039B1514A103A126802434F4B103B1A6003
:1020F00006E04D4A103A126882434B4B103B1A607F
:10210000704739B1484A1C3212680243464B1C33AF
:102110001A6006E0444A1C3212688243424B1C3368
:102120001A60704739B1404A2032126802433E4B70
:1021300020331A6006E03C4A2032126882433A4B50
:1021400020331A60704739B1374A2432126802438B
:10215000354B24331A6006E0334A24321268824336
:10216000314B24331A60704739B12F4A2C32126830
:1021700002432D4B2C331A6006E02B4A2C32126896
:102180008243294B2C331A60704739B1264A3032CA
:1021900012680243244B30331A6006E0224A303280
:1021A00012688243204B30331A607047012808D1EF
:1021B0001D493C31096841F008011B4A3C3211605D
:1021C00007E019493C31096821F00801164A3C3200
:1021D0001160704739B1144A273A12780243124B02
:1021E000273B1A7006E0104A273A127882430E4BBA
:1021F000273B1A7070470C484030006840F08070F0
:10220000094940310860704701460020064A283AD3
:1022100012680A400AB1012000E00020704702491C
:1022200026390870704700003438024010B501218B
:102230008803FFF755FF00214FF48040FFF750FF60
:1022400010BD1C49086070471B490862704730B5D3
:1022500000228B071C0F0F2303FA04F2154B0833DF
:102260008C1053F824309343124C08348D1044F8EA
:10227000253023468C1053F824308C07240F00FAA5
:1022800004F423430B4C08348D1044F8253030BD42
:102290000949DC3108607047084908607047002030
:1022A00004492031096801F4807109B1012000E07E
:1022B00000207047003801400000274200042742F8
:1022C00010B50446FA48844208D101211020FFF7D6
:1022D00007FF00211020FFF703FF57E0F548844275
:1022E00009D101214804FFF7EAFE00214FF4003034
:1022F000FFF7E5FE4AE0F048844209D10121880455
:10230000FFF7DDFE00214FF48020FFF7D8FE3DE00F
:10231000EA48844209D10121C804FFF7D0FE002118
:102320004FF40020FFF7CBFE30E0E548844209D1AE
:1023300001210805FFF7C3FE00214FF48010FFF7CD
:10234000BEFE23E0DF48844208D101212020FFF7B0
:10235000C7FE00212020FFF7C3FE17E0DA488442C1
:1023600009D101218807FFF7AAFE00214FF0804024
:10237000FFF7A5FE0AE0D548844207D101214005B8
:10238000FFF79DFE00216005FFF799FE10BD2DE9C6
:10239000FF4705460E460024A14600BFA046B0896F
:1023A00000B100BF2C8A24F44054F08804432C82EE
:1023B000AC8941F20C608443B0883189084371894B
:1023C00008430443AC81AC8A24F44074B0890443CC
:1023D000AC826846FFF706FDB548854202D0B94891
:1023E000854202D1DDF80C9001E0DDF80890A88963
:1023F00000F4004040B109EBC90000EB091031685E
:102400004900B0FBF1F707E009EBC90000EB091048
:1024100031688900B0FBF1F76420B7FBF0F00401EC
:102420002009642101FB1078A88900F4004040B124
:10243000322000EBC800B0FBF1F000F007000443CD
:1024400008E0322000EB08106421B0FBF1F000F04E
:102450000F0004432C81BDE8FF874FF41651016043
:1024600000218180C18001810C2141810021818175
:10247000704710B502460020108A20F470600B8867
:102480004C8823438C882343CC88234318431082F1
:1024900010BD0021018041808180C180704721B141
:1024A000828942F40052828104E082894DF6FF73F2
:1024B0001A4082817047028B02F47F420283028BB2
:1024C0000A430283704721B1828942F4004282812B
:1024D00003E08289C2F30E028281704721B1828AB1
:1024E00042F40062828204E0828A4FF2FF731A4053
:1024F00082827047C1F30802828070470146888853
:10250000C0F308007047028A4FF6F0731A40028247
:10251000028A0A430282704721B1828942F0020294
:10252000828104E082894FF6FD731A4082817047F0
:1025300082894FF2FF731A40828182890A43828125
:102540007047028A4FF6DF731A400282028A0A43FA
:102550000282704721B1028A42F48042028204E082
:10256000028A4BF6FF731A4002827047818941F05C
:1025700001018181704721B1828A42F00802828282
:1025800004E0828A4FF6F7731A4082827047028B0A
:10259000D2B20283028B42EA01220283704721B148
:1025A000828A42F02002828204E0828A4FF6DF7340
:1025B0001A408282704721B1828A42F010028282E0
:1025C00004E0828A4FF6EF731A4082827047828A53
:1025D0004FF6FB731A408282828A0A4382827047D6
:1025E00021B1828A42F00202828204E0828A4FF69E
:1025F000FD731A40828270471AB1838A0B4383822B
:1026000002E0838A8B4383827047F0B5034600243F
:1026100000260025002040F66A17B94200D100BF0D
:102620001846C1F3421401F01F06012707FA06F508
:10263000012C01D10C3004E0022C01D1103000E05B
:1026400014301AB107682F43076002E00768AF43F0
:102650000760F0BD02460020B1F5007F00D100BF49
:1026600013880B400BB1012000E00020704701F4FB
:102670000072B2F5007F00D100BFCA4302807047EC
:1026800070B50246002400230025002040F66A169B
:10269000B14200D100BFC1F3421501F01F03012672
:1026A00006FA03F3012D13D19689334017E0000099
:1026B000001001400044004000480040004C004031
:1026C000005000400014014000780040007C0040B1
:1026D000022D02D1168A334001E0968A33400C1253
:1026E000012606FA04F41688344013B10CB1012017
:1026F00000E0002070BD10B50022002340F66A14EF
:10270000A14200D100BF0A1201249440A3B2DC43CD
:10271000048010BD10B50446FE48844209D1012151
:102720004806FFF7CCFC00214FF00070FFF7C7FC14
:1027300008E001218806FFF7C2FC00214FF080600D
:10274000FFF7BDFC10BD30B5024600200023146821
:1027500024F002041460146844F00104146000E0E2
:102760005B1C546804F001041CB94FF6FF74A342CB
:10277000F6D1546804F001040CB900206CE08C79A7
:10278000012C04D1146844F08004146003E0146840
:1027900024F080041460CC79012C04D1146844F036
:1027A0004004146003E0146824F0400414600C7AC0
:1027B000012C04D1146844F02004146003E0146870
:1027C00024F0200414604C7A012C04D1146844F0E5
:1027D0001004146003E0146824F0100414608C7A70
:1027E000012C04D1146844F00804146003E0146858
:1027F00024F008041460CC7A012C04D1146844F04D
:102800000404146003E0146824F0040414608C7859
:10281000A407CD7844EA05640D7944EA05444D796E
:1028200044EA05540D886D1E2C43D461146824F0CD
:1028300001041460002300E05B1C546804F00104F0
:102840001CB14FF6FF74A342F6D1546804F00104A2
:102850000CB1002000E0012030BD10B50021837ACA
:10286000012202FA03F1AC4A126842F00102AA4BBB
:102870001A60A94A1C3212688A43A74B1C331A609B
:10288000027BCAB9A44A0C3212688A43A24B0C33A9
:102890001A604288C38842EA03439F4A4032847ADE
:1028A00042F834300288838842EA03439A4A40322D
:1028B000847A02EBC4025360027B012A19D1964A42
:1028C0000C3212680A43944B0C331A604288038816
:1028D00042EA0343904A4032847A42F83430C28854
:1028E000838842EA03438C4A4032847A02EBC40272
:1028F0005360C27A3AB9884A121D12688A43864BDD
:102900001B1D1A6006E0844A121D12680A43824B9E
:102910001B1D1A60028932B97F4A143212688A4339
:102920007D4B14331A600289012A06D17A4A143287
:1029300012680A43784B14331A60427B012A06D18D
:10294000754A1C3212680A43734B1C331A60724A70
:10295000126822F00102704B1A6010BD00218171D3
:10296000C171017241728172C1728170C1700321A3
:102970000171022141710121018070476649096896
:1029800041F00101644A11601146096843F60E7274
:102990009143614A11601146096841EA00211160C2
:1029A0001146096821F001011160704721B10268E8
:1029B00042F48032026003E0026822F48032026056
:1029C0007047E1B1026842F0800202604FF4C272C7
:1029D000125842F480734FF4C27213504FF4CA720B
:1029E000125842F480734FF4CA7213504FF4D272EB
:1029F000125842F480734FF4D27213501BE00268F5
:102A000022F0800202604FF4C272125822F48073E6
:102A10004FF4C27213504FF4CA72125822F48073EA
:102A20004FF4CA7213504FF4D272125822F48073CA
:102A30004FF4D2721350704710B5024600209368CD
:102A400003F08063B3F1806F00D110E0936803F06E
:102A50000063B3F1006F01D1012008E0936803F037
:102A60008053B3F1805F01D1022000E004200428EC
:102A700079D002F5C07303EB00131B6803F0010467
:102A800002F5C07303EB00131C600B7A7BB94B7A21
:102A90000C8843EA445302F5C07404EB0014246824
:102AA000234302F5C07404EB0014236010E00B7A9A
:102AB0004C6843EAC4034C7A234302F5C07404EB28
:102AC00000142468234302F5C07404EB001423604F
:102AD0008B7A03F00F038B7202F5C07303EB0013C4
:102AE0005B6823F00F0402F5C07303EB00135C6016
:102AF00002F5C07303EB00135B688C7A234302F585
:102B0000C07404EB001463608B7B1C064B7B44EAAF
:102B1000034403E000640040006600400B7B44EA8D
:102B20000323CC7A234302F5C07404EB0014A360A2
:102B30008B7C1C064B7C44EA03440B7C44EA032355
:102B4000CC7B234302F5C07404EB0014E36002F570
:102B5000C07303EB00131B6843F0010402F5C0735C
:102B600003EB00131C6010BD10B50246002321B119
:102B7000012907D002290FD109E09068F94C00EA39
:102B800004030BE09068F84C00EA040306E0906848
:102B9000F64C00EA040301E0002300BF00BFF44C40
:102BA000181BA34216D007DC83B16FF08060184475
:102BB00070B1022818D111E0B0F5007F10D0ED4CB3
:102BC000204448B1B0F5003F0ED10BE002230DE0E8
:102BD00000230BE0002309E0002307E0012305E0C8
:102BE000012303E0012301E0002300BF00BFD8B2AE
:102BF00010BD21B1012907D002290FD109E0826857
:102C000042F0800282600AE0826842F40042826000
:102C100005E0826842F40002826000E000BF00BF6D
:102C2000704710B500F5D87303EB01131B6803F070
:102C300004031372137A53B900F5D87303EB01132D
:102C40001B6840F2FF7404EA5353136009E000F577
:102C5000D87303EB01131B686FF0604404EAD303DD
:102C6000536000F5D87303EB01131B6803F00203F4
:102C7000537200F5D87303EB01135B6803F00F0385
:102C8000937200F5D87303EB01135B681B0AD374CE
:102C900000F5D87303EB01139B68D37200F5D8736A
:102CA00003EB01139B681C0A147300F5D87303EB44
:102CB00001139B681C0C547300F5D87303EB0113CC
:102CC0009B681B0E937300F5D87303EB0113DB684D
:102CD000D37300F5D87303EB0113DB681C0A14747B
:102CE00000F5D87303EB0113DB681C0C547400F57A
:102CF000D87303EB0113DB681B0E937421B9C3680F
:102D000043F02003C36003E0036943F02003036141
:102D100010BD21B9C26842F02002C26003E002691E
:102D200042F02002026170470246002019B9D368C0
:102D300003F0030006E0012903D1136903F0030047
:102D400000E00020704710B502460B4600204FF609
:102D5000FF71BBB9146824F0020444F0010414604C
:102D600000E0491E546804F00304012C01D000293E
:102D7000F7D1546804F00304012C01D0002032E0A4
:102D8000012030E0012B13D1146824F003041460F7
:102D900000E0491E546804F003040CB10029F8D186
:102DA000546804F003040CB100201CE001201AE078
:102DB000022B17D1146824F0010444F002041460BB
:102DC00000E0491E546804F00304022C01D00029DD
:102DD000F7D1546804F00304022C01D0002002E073
:102DE000012000E0002010BD014600200A6822F00A
:102DF000010242F002020A604A6802F00302022A5B
:102E000000D10120704701464FF6FF7200200B6889
:102E100023F002030B6000E0521E4B6803F0020334
:102E2000022B01D1002AF7D14B6803F00203022BD9
:102E300000D001207047014600208A6902F070002E
:102E40007047014600208A69100E70470146002035
:102E50008A69C2F3074070471AB143690B43436163
:102E600002E043698B434361704710B5024600207E
:102E700001F4700343B19369C1F3130423400BB110
:102E800001202DE000202BE001F0807343B1536856
:102E9000C1F3130423400BB1012021E000201FE007
:102EA00001F0006343B19368C1F3130423400BB1F5
:102EB000012015E0002013E001F0007343B1D36856
:102EC000C1F3130423400BB1012009E0002007E007
:102ED0001369C1F3130423400BB1012000E000206B
:102EE00010BD0022244B994202D10023836111E0DE
:102EF000C1F3130201F000730BB1C2600AE001F0EC
:102F000080630BB1026105E001F000630BB18260E8
:102F100000E0426070470246002002EA01030BB164
:102F2000012000E00020704770B504460D460026E1
:102F300060692840002872D0B5F5807F69D01DDC1B
:102F4000082D42D006DC012D2DD0022D31D0042DCC
:102F50007FD134E0102D3ED0202D42D0402D78D1AD
:102F600045E0000003000004000300080000031017
:102F7000000100080001FFF77000F030B5F5004FC8
:102F800061D009DCB5F5007F4AD0B5F5806F4DD032
:102F9000B5F5006F5DD150E0B5F5803F2DD0B5F5AA
:102FA000003F56D12FE0A0685549FFF7B4FF064611
:102FB00051E0E0680321FFF7AEFF06464BE0E06812
:102FC0000821FFF7A8FF064645E0E0681021FFF75B
:102FD000A2FF06463FE020690321FFF79CFF06465B
:102FE00039E020690821FFF796FF064633E02069A3
:102FF0001021FFF790FF06462DE060680821FFF7DB
:103000008AFF064627E060681021FFF784FF064626
:1030100021E0A0690121FFF77EFF06461BE01BE0CF
:10302000A0690221FFF777FF064614E0A06904219A
:10303000FFF771FF06460EE00BE0A0697021FFF775
:103040006AFF064607E060680421FFF764FF064652
:1030500001E0002600BF00E00026304670BDB1F55B
:10306000007F3AD00FDC202928D006DC01291CD0B3
:1030700004291DD0082940D11DE0402921D0B1F5F7
:10308000807F3AD126E0B1F5004F31D006DCB1F5B2
:10309000806F25D0B1F5006F2FD124E0B1F5803FCE
:1030A00012D0B1F5003F28D111E0154A826025E029
:1030B0000822C26022E01022C2601FE008220261E2
:1030C0001CE01022026119E00822426016E0102282
:1030D000426013E00422426010E0042242600DE0EE
:1030E000042242600AE0002282610422426005E07C
:1030F000002282610422426000E000BF00BF7047EE
:103100000101010010B50446FE48844208D10121A6
:103110000846FEF7E5FF00210120FEF7E1FF9DE0F4
:10312000B4F1804F08D101210846FEF7C8FF002105
:103130000120FEF7C4FF91E0F348844208D1012149
:103140000220FEF7BCFF00210220FEF7B8FF85E059
:10315000EE48844208D101210420FEF7B0FF00218F
:103160000420FEF7ACFF79E0E948844208D1012150
:103170000820FEF7A4FF00210820FEF7A0FF6DE065
:10318000E448844208D101211020FEF798FF002175
:103190001020FEF794FF61E0DF48844208D101214E
:1031A0002020FEF78CFF00212020FEF788FF55E04D
:1031B000DA48844208D101210220FEF791FF002164
:1031C0000220FEF78DFF49E0D548844209D1012154
:1031D0000804FEF785FF00214FF48030FEF780FFE2
:1031E0003CE0D048844209D101214804FEF778FF31
:1031F00000214FF40030FEF773FF2FE0CA488442ED
:1032000009D101218804FEF76BFF00214FF48020D3
:10321000FEF766FF22E0C548844208D10121402024
:10322000FEF74DFF00214020FEF749FF16E0C048A1
:10323000844208D101218020FEF741FF0021802037
:10324000FEF73DFF0AE0BB48844207D1012180150B
:10325000FEF735FF0021A015FEF731FF10BD00225B
:103260000288A84B98420ED0AC4B98420BD0B0F1DC
:10327000804F08D0A44B984205D0A44B984202D06E
:10328000A34B984204D14FF68F731A404B881A43D0
:10329000A04B984207D0A04B984204D04FF6FF4372
:1032A0001A400B891A4302804B68C3620B8803855E
:1032B000944B984202D0994B984201D18B7A038665
:1032C0000123838270474FF0FF314160002101806C
:1032D00001814180817270470185828270470A4670
:1032E000002101884FF68F73194011430180704708
:1032F00041627047C16270470146486A70470146A3
:10330000088D704721B1028842F00202028004E079
:1033100002884FF6FD731A400280704721B102887F
:1033200042F00402028004E002884FF6FB731A4068
:103330000280704721B1028842F08002028004E0DE
:1033400002884FF67F731A400280704702884FF65A
:10335000F7731A40028002880A430280704702888D
:103360004FF6FF431A40028002880A4302807047EA
:1033700021B1028842F00102028004E002884FF687
:10338000FE731A400280704770B5002400220023AB
:10339000058C4FF6FE7635400584028C8388048BBD
:1033A0004FF68F752C40B51E2C400D882C43751E92
:1033B0002A408D892A434D882A43524DA84202D083
:1033C000564DA84213D14FF6F7752A40CD892A43AE
:1033D0004FF6FB752A408D882A434FF6FF652B4038
:1033E0004FF6FF552B400D8A2B434D8A2B4383808C
:1033F00004838D684563028470BD70B5002400228B
:103400000023058C4FF6EF7635400584028C8388C7
:10341000048B48F6FF752C404FF6FF452C400D8875
:103420004FF6FF7606EA05252C434FF6DF752A4056
:103430008D8906EA05152A434D8806EA05152A43B3
:10344000304DA84202D0354DA8421DD14FF67F75B0
:103450002A40CD894FF6FF7606EA05152A434FF636
:10346000BF752A408D8806EA05152A434FF6FF35B9
:103470002B404FF2FF752B400D8A06EA85052B4342
:103480004D8A06EA85052B43838004838D68856316
:10349000028470BD70B5002400220023058C4FF615
:1034A000FF6635400584028C8388848B4FF68F75C8
:1034B0002C404FF6FC752C400D882C434FF6FF55E1
:1034C0002A408D894FF6FF7606EA05252A434D8866
:1034D00006EA05252A430B4DA84202D00F4DA8420B
:1034E00038D14FF2FF752A40CD894FF6FF7606EAB4
:1034F00005252A434FF6FF352A408D8806EA052523
:103500002A4319E000000140000400400008004088
:10351000000C004000100040001400400004014076
:1035200000400140004401400048014000180040B4
:10353000001C0040002000404EF6FF752B404DF669
:10354000FF752B400D8A06EA05152B434D8A06EAC6
:1035500005152B43838084838D68C563028470BD09
:1035600070B5002200230024058C4EF6FF7635400E
:103570000584038C8488828B48F6FF752A404FF6B9
:10358000FF452A400D884FF6FF7606EA05252A43B7
:103590004DF6FF752B408D8906EA05352B434D8886
:1035A00006EA05352B43FE4DA84202D0FD4DA84248
:1035B00008D14BF6FF752C400D8A4FF6FF7606EAD0
:1035C00085152C43848082838D680564038470BDD7
:1035D000002101804180818081608181C1810182DF
:1035E0004182704770B50346002000241846183009
:1035F00001258D40ACB21D8CA5431D8409B108295D
:103600000AD100EB610005684FF68F763540056002
:103610000568154305600FE00D1FC5F34E052844EE
:10362000056848F6FF763540056005684FF6FF7679
:1036300006EA02263543056070BD41637047816329
:103640007047C1637047016470470A460021018BCF
:103650004FF68F7319401143018370470A460021CA
:10366000018B48F6FF7319404FF6FF7303EA0223FC
:103670001943018370470A460021818B4FF68F73EF
:1036800019401143818370470A460021818B48F617
:10369000FF7319404FF6FF7303EA02231943818336
:1036A00070470A460021018B4FF6F773194011430A
:1036B000018370470A460021018B4FF2FF731940C6
:1036C0004FF6FF7303EA02231943018370470A464A
:1036D0000021818B4FF6F7731940114381837047A6
:1036E0000A460021818B4FF2FF7319404FF6FF739A
:1036F00003EA02231943818370470A460021018BA4
:103700004FF6FB7319401143018370470A460021AD
:10371000018B4FF6FF3319404FF6FF7303EA022384
:103720001943018370470A460021818B4FF6FB73D2
:1037300019401143818370470A460021818B4FF65F
:10374000FF3319404FF6FF7303EA022319438183C5
:1037500070470A460021018B4FF67F7319401143D1
:10376000018370470A460021018BC1F30E014FF619
:10377000FF7303EA02231943018370470A460021BD
:10378000818B4FF67F7319401143818370470A463E
:103790000021818BC1F30E014FF6FF7303EA022370
:1037A0001943818370470A460021018C4FF6FD734F
:1037B00019401143018470470A460021018C4FF6DD
:1037C000F77319401143018470470A460021018CA8
:1037D0004FF6DF7319404FF6FF7303EA02131943E4
:1037E000018470470A460021018C4FF67F7319400F
:1037F0004FF6FF7303EA02131943018470470A4628
:103800000021018C4FF6FF5319404FF6FF7303EA76
:1038100002231943018470470A460021018C4FF2AC
:10382000FF7319404FF6FF7303EA02231943018423
:1038300070470A460021018C4DF6FF7319404FF680
:10384000FF7303EA023319430184704730B5002344
:1038500001248C40A3B2048C9C430484048C02FA9F
:1038600001F5ADB22C43048430BD30B500230424EF
:103870008C40A3B2048C9C430484048C02FA01F5AE
:10388000ADB22C43048430BD828B4FF2FF331A401B
:103890008283828B4FF6FF7303EA01231A438283EC
:1038A0007047F0B50C461546002100220026078C13
:1038B0004EF6FF7C07EA0C070784818B028C4FF6DB
:1038C000FF7707EA043640F6FF4739404FF6FF77A7
:1038D00007EA052739434FF6FF7707EA03373943ED
:1038E00045F6FF773A4046F480573A438183028495
:1038F000F0BD828B4FF6F3731A408283828B0A43AA
:1039000082837047F0B50C46154600210022002640
:10391000078C4FF6FF6C07EA0C070784818B028C3B
:103920004FF6FF7707EA04264FF60C7739404FF63B
:10393000FF7707EA03172F4339434FF2FF573A4007
:1039400046F480773A4381830284F0BD028B4FF2C4
:10395000FF331A400283028B4FF6FF7303EA012301
:103960001A4302837047F0B50C4615460021002229
:103970000026078C4FF6EF7C07EA0C070784018BC3
:10398000028C4FF6FF7707EA041640F6FF473940EE
:103990004FF6FF7707EA033739434FF6FF7703E027
:1039A000000001400004014007EA052739434FF6B3
:1039B0005F773A4046F010073A4301830284F0BD36
:1039C000028B4FF6F3731A400283028B0A43028381
:1039D0007047F0B50C46154600210022068C4FF6C4
:1039E000FE773E400684018B028C4FF60C76314008
:1039F0007E1C06EA03162E4331434FF6F57632401D
:103A000044F00106324301830284F0BD70B50546DF
:103A10000C46208850B92389A28861882846FFF780
:103A2000D8FFE1882846FFF7CBFF25E0208804284F
:103A30000AD12389A28861882846FFF794FFE1888C
:103A40002846FFF783FF17E0208808280AD123893A
:103A5000A28861882846FFF755FFE1882846FFF7CE
:103A600048FF09E02389A28861882846FFF719FFEB
:103A7000E1882846FFF708FF70BD002101804180E2
:103A8000012181800021C180018170472DE9F04131
:103A900005460C4600260127608808B9022600E08A
:103AA0000026A088012801D1022700E001272088F4
:103AB000A0B92389A28861882846FFF78AFFE18898
:103AC0002846FFF77DFF23893A4631462846FFF70F
:103AD0004AFFE1882846FFF739FF13E02389A288CF
:103AE00061882846FFF73FFFE1882846FFF72EFF51
:103AF00023893A4631462846FFF76BFFE18828467E
:103B0000FFF75EFFBDE8F0810146486B7047014654
:103B1000886B70470146C86B70470146086C704758
:103B20000A884B881A438B881A43CB881A430B891F
:103B30001A434B891A438B891A43A0F844207047D3
:103B40000021018041808180C1800181418181818A
:103B5000704731B1B0F8442042F40042A0F844204C
:103B600005E0B0F84420C2F30E02A0F844207047EC
:103B700021B1828842F00402828004E082884FF6FC
:103B8000FB731A408280704721B1828842F00102A3
:103B9000828004E082884FF6FE731A40828070476C
:103BA0001AB183890B43838102E083898B4383812C
:103BB00070478182704702460020138A0B400BB188
:103BC000012000E000207047CA430282704730B5F0
:103BD0000246002000230024158A05EA0103958986
:103BE00005EA010413B10CB1012000E0002030BD52
:103BF000CA430282704741EA0203A0F84830704786
:103C00001AB183890B43838102E083898B438381CB
:103C1000704721B1828842F00802828004E08288E5
:103C20004FF6F7731A408280704701894FF6F87299
:103C30001140018170470A46002101894FF68F73B8
:103C4000194011430181704730B504460D4629469D
:103C50002046FFF7F0FF208940F00700208130BDAB
:103C60002DE9F04104460D4616461F46602D06D14B
:103C70003B46012231462046FFF775FE05E03B46F4
:103C8000012231462046FFF7A4FE29462046FFF7D1
:103C9000D2FF208940F007002081BDE8F08130B5D7
:103CA0000C4600210189C9B24FF6FF7505EA0325CC
:103CB000154325432943018130BD2DE9F0410546D7
:103CC0000E4617469846002443463A463146284653
:103CD000FFF7E5FF2C894FF6F870044044F0070425
:103CE0004FF68F70044044F070042C81BDE8F081E1
:103CF000F0B504460D4616461F463B463246294659
:103D00002046FFF7CCFF208940F480402081F0BDA1
:103D100082884FF68F731A40828082880A4382809D
:103D2000704702894FF6F8731A40028102890A43EC
:103D30000281704702894FF67F731A40028102891F
:103D40000A4302817047F0B50C4615461E46002115
:103D5000002200230189028B038C4FF6F87739404B
:103D600021434FF6FC473A4040F201173A434FF6E1
:103D7000DD773B404FF6FF7707EA06172F433B43BB
:103D8000018102830384F0BD21B1828842F0800268
:103D9000828004E082884FF67F731A4082807047E9
:103DA000A0F8501070470000002041490860091D2C
:103DB0000860091D0860091D08603E483C4914312F
:103DC0000860704700213A498279002A3AD00A46B1
:103DD000126803689A430B461A600A1D126803684A
:103DE0009A430B1D1A60027911440A6803681A434A
:103DF0000A602F4A0832126803689A432C4B083332
:103E00001A601A1D126803689A43294B0C331A6012
:103E10004279102A0ED11A1F126803681A43244BE4
:103E200008331A601A1D126803681A43204B0C33BA
:103E30001A600DE01E49427911440A6803681A436A
:103E40000A6005E0027911440A6803689A430A602F
:103E500070470021016001710C21417100218171C5
:103E600070471349103109680143114A103211603B
:103E70007047014600200E4A143212680A400AB107
:103E8000012000E0002070470949143108607047A4
:103E900001460020064A143212680A400AB1012085
:103EA00000E00020704702491431086070470000AC
:103EB000003C0140FFFF7F0010B50446FB488442F0
:103EC00008D101218014FEF70BF90021A014FEF7A0
:103ED00007F93CE0F648844208D101210014FEF7BE
:103EE000EEF800212014FEF7EAF830E0F1488442B1
:103EF00008D10121C013FEF7E2F80021E013FEF71C
:103F0000DEF824E0EC48844208D101214014FEF799
:103F1000E7F800216014FEF7E3F818E0E748844270
:103F200009D101210805FEF7DBF800214FF48010CC
:103F3000FEF7D6F80BE0E248844208D1012148059B
:103F4000FEF7CEF800214FF40010FEF7C9F810BDBF
:103F500010B50022028802F441520B884C8823439A
:103F60008C882343CC8823430C8923434C892343E7
:103F70008C892343CC8923431A430280838B4FF2DD
:103F8000FF74234083830B8A038210BD2DE9F04F19
:103F90000025022300244FF00109002200260027FB
:103FA00094469046B0F81CA04FF2400B0AEA0B0A68
:103FB000A0F81CA04FF0020AA0F820A0858BD1F831
:103FC00008A0BAF1020F01D100BF82E0B1F804A04D
:103FD000BAF1000F02D14FF0010901E04FF00209E0
:103FE000DFF8E0A2DAF800A00AF4000ABAF1000F44
:103FF00009D0DFF8D0A2DAF800A02AF4000ADFF82E
:10400000C4B2CBF800A0DFF8BCA20AF17C0ADAF84F
:1040100000A0CAF3881CDFF8ACA20AF17C0ADAF827
:1040200000A0CAF30278DFF89CA2AAF1040ADAF829
:1040300000A00AF03F07DFF88CA2AAF1040ADAF820
:1040400000A00AF4800ABAF5800F08D1DFF878A240
:10405000BAFBF7FA0AFB0CFABAFBF8F607E0DFF84E
:104060006CA2BAFBF7FA0AFB0CFABAFBF8F6B1F845
:1040700006A0BAF5007F0ED14FEA162A0AEB8A0A8B
:104080004FEA4A0AD1F808B0BAFBFBFA0AF1050A6E
:104090001FFA8AF20FE04FEA491AB6FBFAFA0AEB66
:1040A0008A0A4FEA4A0AD1F808B0BAFBFBFA0AF1C9
:1040B000050A1FFA8AF24FF00A0AB2FBFAF202F07E
:1040C0000104A2EB040ACAF34F034FF6FF7A0AEA8F
:1040D0000424022B01DBFF2B01DD02230024B1F8B5
:1040E00006A04AEA040A4AEA030AA0F820A0B1F8A6
:1040F00004A0B1F80CB04AEA0B0AB1F802B04AEADF
:104100000B0AB1F800B04AEA0B0A4AF4006A4AEA1C
:1041100005058583BDE8F08F002101804180818005
:10412000C180018141818181C18107210182704764
:104130000021018041808180C180022181600021B5
:104140008181704721B1028842F04002028004E080
:1041500002884FF6BF731A400280704721B1828BEC
:1041600042F48062828304E0828B4FF6FF331A4070
:104170008283704702884FF2FF731A4002800288E0
:104180000A4302807047B1F5804F04D1028842F49F
:104190008042028004E002884BF6FF731A400280DE
:1041A00070474FF6FF62914204D0028842F4807259
:1041B000028004E002884FF6FF631A4002807047D5
:1041C00021B1828842F00402828004E082884FF6A6
:1041D000FB731A408280704721B1828842F010023E
:1041E000828004E082884FF6EF731A408280704725
:1041F00030B500220023848B4FF240052C4084838D
:1042000002240484828B0C88B4F5007F01D00C88D2
:1042100014B94FF4807308E00C88B4F5407F03D0E4
:104220000C88B4F5807F00D100238C888D892C43C5
:104230004D882C431C4344F400642243828330BDE8
:104240000146888970478181704721B1028842F414
:104250000052028004E002884DF6FF731A4002808B
:104260007047018841F48051018070470246002068
:10427000012901D0108B00E0908A70470146088A1E
:1042800070471AB183880B43838002E083888B4395
:104290008380704730B5002400230C110125A54010
:1042A000ABB2AAB185881D43858014E0003001407F
:1042B00000380040003C0040003401400050014004
:1042C0000054014008380240001BB7000024F400ED
:1042D00085889D43858030BD0246002013890B40B0
:1042E0000BB1012000E000207047CA4302817047F3
:1042F000F0B50246002000240023002501F00F073E
:104300000126BE40B4B20B1101269E40B3B296887E
:1043100006EA03051689264016B10DB1012000E01A
:104320000020F0BD10B5002201F00F040123A340CE
:104330009AB2D343038110BD016821F001010160ED
:104340000021016041608160C16001612121416102
:10435000DB49884204D13D21D94A103A91608CE072
:10436000D7491831884205D14FF47461D44A103AC4
:10437000916082E0D2493031884205D14FF4741106
:10438000CF4A103A916078E0CD494831884205D152
:104390004FF07461CA4A103A91606EE0C8496031CA
:1043A000884204D1C749C64A103AD16065E0C44981
:1043B0007831884204D1C449C14A103AD1605CE0E6
:1043C000BF499031884204D1C049BD4A103AD160FA
:1043D00053E0BB49A831884205D14FF03D51B84A5E
:1043E000103AD16049E0BA49884204D13D21B84A27
:1043F000083A116041E0B6491831884205D14FF4BE
:104400007461B34A083A116037E0B14930318842EB
:1044100005D14FF47411AE4A083A11602DE0AC4951
:104420004831884205D14FF07461A94A083A1160B9
:1044300023E0A7496031884204D1A249A44A121F4F
:1044400011601AE0A2497831884204D19E49A04AFD
:10445000121F116011E09E499031884204D19B499E
:104460009B4A121F116008E09949A831884204D183
:104470004FF03D51964A121F1160704710B500224F
:104480000268944B1A40CC680B6823434C69234361
:104490008C692343CC6923430C6A23434C6A23432E
:1044A0008C6A23434C6B23438C6B23431A43026077
:1044B000426922F00702D1E90B3423431A434261D7
:1044C0000B6943604B6883608B68C36010BD00213B
:1044D000016041608160C160016141618161C161D0
:1044E000016241628162C16201634163816370471D
:1044F00021B1026842F00102026003E0026822F08A
:1045000001020260704721B1026842F40042026079
:1045100003E0026822F400420260704721B10268A1
:1045200042F02002026003E0026822F020020260F2
:104530007047416070470146486880B2704722B1B9
:10454000036843F40023036003E0036823F40023BB
:1045500003600161704721B1026842F48022026069
:1045600003E0026822F48022026070470AB1016110
:1045700000E0C1607047014600200A6802F4002292
:104580000AB1012000E000207047014600200A68BF
:1045900002F001020AB1012000E00020704701464C
:1045A00000204A6902F03800704730B503460A46D9
:1045B00000200024464DAB4202D24149103901E0AF
:1045C0004349103902F000550DB14C6800E00C6809
:1045D000414D2C4004EA02050DB1012000E000200D
:1045E00030BD02463A4B9A4202D23548103801E0BB
:1045F0003748103801F000531BB1374B0B40C360F4
:1046000002E0354B0B408360704710B501F080032A
:104610004BB122B1436943F08003436103E0436936
:1046200023F08003436180290BD02AB1036801F095
:104630001E042343036004E0036801F01E04A34347
:10464000036010BD70B50246002000240025204EF6
:10465000B24202D21A4B103B01E01D4B103B1F4EE1
:104660000E4036B11E2606EAD124166806EA040575
:1046700002E0566906F0800501F000560EB15C6854
:1046800000E01C68144E344004EA010616B10DB176
:10469000012000E0002070BD02460D4B9A4202D27C
:1046A0000748103801E00A48103801F000531BB1E8
:1046B000094B0B40C36002E0074B0B40836070471F
:1046C000106002403D000020400F002000003D200F
:1046D000106402403F801CF07D0F7D0F3C0F3C0FAB
:1046E00080ED000B80ED021B80ED042B80ED063B7E
:1046F0009FED664B80ED084B9FED644B80ED0C4BBE
:104700009FED624B80ED0A4B9FED604B80ED104BAF
:104710009FED5E4B80ED0E4B70472DE9F0412DED86
:10472000088B04460D4616461F46E81B02F0CFF9DB
:10473000C4E90A0194ED062BB0EE420AF0EE620ADB
:1047400094ED0A2BB0EE421AF0EE621A53EC102BE5
:1047500051EC110B02F020FB04D294ED060B84ED1A
:104760000A0B22E094ED061BB0EE410AF0EE610A5E
:1047700051EC100B01F032FF41EC180B94ED0A1BC9
:10478000B0EE410AF0EE610A53EC102B02F004FB8C
:104790000BD294ED061BB0EE410AF0EE610A51EC2B
:1047A000100B01F01BFFC4E90A01304602F08FF93B
:1047B000C4E90E0194ED102BB0EE420AF0EE620A4D
:1047C00094ED0E2BB0EE421AF0EE621A53EC102B61
:1047D00051EC110B02F016FB41EC1A0B94ED021B8D
:1047E000B0EE410AF0EE610A53EC102B02F0D6F95C
:1047F00041EC180B94ED0C2BB0EE420AF0EE620A7D
:1048000094ED0A2BB0EE421AF0EE621A53EC102B24
:1048100051EC110B02F0F6FA41EC1B0B94ED001B6E
:10482000B0EE410AF0EE610A53EC102B02F0B6F93B
:1048300041EC1A0B94ED081BB0EE410AF0EE610A50
:1048400053EC102B01F008FF41EC190B53EC182B23
:1048500002F0D8FAC4E9080194ED0A0B84ED0C0BC0
:1048600094ED0E0B84ED100BBDEC088BBDE8F081D0
:10487000F0EE400AF5EEC00AF1EE10FA02DBB0EEFF
:10488000600A7047B1EE600AFBE70000000000001C
:1048900000000000FE4908707047FD48007870472E
:1048A00010B50F20FB490880FB490880FB490880B0
:1048B000FB49088040F2DC50FCF732F94FF41670E7
:1048C000FCF71BF94FF4E160FCF70EF94FF47A7036
:1048D000FCF7C8F910BD0A20F2490860F2490860E7
:1048E0000020F2490871F2490871F2490871F24951
:1048F0000871F2490871F2490871F2490871F249E8
:104900000871EA49C870EA49C870EA49C870EA49BA
:10491000C870EA49C870EA49C870EA49C870EA49EB
:10492000C870EA4948720871012088710221E7487D
:10493000C171032101720020E4498872032048718B
:104940000020C872704710B500240220FFF7A2FFB4
:104950009FEDDF0BE04880ED060B9FEDE00BE1489B
:1049600080ED060B9FEDDD0BDF4880ED060B9FED24
:10497000DF0BE04880ED060B1E20C6490880C649C3
:104980000880C6490880C649088000BFDA48B0F9E7
:1049900018001428FADBD948B0F918001428F5DB00
:1049A000D748B0F918001428F0DBD648B0F9180041
:1049B0001428EBDB9FEDD40BC74880ED060B9FED71
:1049C000D40BC84880ED060B9FEDD10BC64880ED97
:1049D000060B9FEDD10BC74880ED060B4FF6184034
:1049E000AC490880AC490880AC490880AC490880D3
:1049F0000120CB4908705DE0CA480078C82859DD1D
:104A0000BD48B0F91200201ABC49B1F91210401A81
:104A1000BB49B1F91210401ABA49B1F91210401A43
:104A200000EE900AF8EE600AB0EE600AFFF720FF91
:104A3000F0EE080AB4EEE00AF1EE10FA28D20020F7
:104A4000AD490883AD490883AD490883AD49088362
:104A500090490880904908809049088090490880D2
:104A6000AF490870AF4908709FEDAF0B9A4880EDD1
:104A7000060B9FEDAF0B9B4880ED060B9FEDAA0B3D
:104A8000994880ED060B9FEDA80B9A4880ED060B28
:104A90009948B0F912009949B1F91210084498499F
:104AA000B1F9121008449749B1F9121044180020C6
:104AB0009C4908709048008B00289DD18F48008B3E
:104AC000002899D18E48008B002895D18D48008B05
:104AD000002891D110BD10B52DED068B9648806E43
:104AE000B0F5BE7F4FDD834890ED082BB0EE420A53
:104AF000F0EE620A7C4890ED082BB0EE421AF0EE20
:104B0000621A53EC102B51EC110B01F0A5FD41EC96
:104B10001A0B714890ED081BB0EE410AF0EE610AE5
:104B200053EC102B51EC1A0B02F06CF941EC190B01
:104B30006C4890ED081BB0EE410AF0EE610A53ECB0
:104B4000102B51EC190B02F05DF941EC180B9FEDA5
:104B50007B0B53EC102B02F01FF968D29FED790B01
:104B60005D4880ED080B9FED770B5E4880ED080BEC
:104B70009FED740B5C4880ED080B9FED720B5D4858
:104B800080ED080B53E06C48806E10F5117F4EDA13
:104B9000584890ED082BB0EE420AF0EE620A5248F7
:104BA00090ED082BB0EE421AF0EE621A53EC102B87
:104BB00051EC110B01F050FD41EC1A0B464890ED01
:104BC000081BB0EE410AF0EE610A53EC102B51ECD9
:104BD0001A0B02F017F941EC190B424890ED081B33
:104BE000B0EE410AF0EE610A53EC102B51EC190BB8
:104BF00002F008F941EC180B9FED540B53EC102B0D
:104C000001F090FF13D29FED4F0B334880ED080B5E
:104C10009FED4C0B334880ED080B9FED4A0B32485B
:104C200080ED080B9FED470B324880ED080BBDEC83
:104C3000068B10BD00211C4A117111460860704797
:104C40000021184A117111460860704710B52DED0A
:104C5000068B1449C86801F03AFF41EC1A0B1E4854
:104C600090ED081BB0EE410AF0EE610A53EC102BF8
:104C700051EC1A0B02F0C6F841EC190B01F0BAFC2A
:104C800008EE100AB0EE480AFFF7F2FD62E00000FD
:104C90005D00002044000020460000204800002065
:104CA0004A000020E0020020F00200206000002006
:104CB000660000206C0000207200002078000020B8
:104CC0007E000020840000208A00002028030020AD
:104CD0000000000000002440A001002000000000AF
:104CE00000002640E8010020300200200000000003
:104CF00000002A4078020020240100203E0100200C
:104D00005801002072010020000000000000144043
:104D100000000000000018400000000000002240D9
:104D20004D0000204E0000200000000000C0624046
:104D30000000000000E0624034030020000000009A
:104D400000005940000000000000000000000000CA
:104D5000000059C0DFEDF90AB4EEE00AF1EE10FAF6
:104D600002DD0A20FFF76CFFF549C86801F0AFFECD
:104D700041EC1A0BF34890ED081BB0EE410AF0EE3F
:104D8000610A53EC102B51EC1A0B02F03BF841EC8A
:104D9000190B01F02FFC08EE100AB0EE480AFFF7DD
:104DA00067FDDFEDE60AB4EEE00AF1EE10FA02DD8F
:104DB0000A20FFF73FFFE44890ED081BB0EE410AE0
:104DC000F0EE610A51EC100B01F052FEDF49C860B1
:104DD000DC4890ED081BB0EE410AF0EE610A51ECA0
:104DE000100B01F045FED649C860BDEC068B10BD26
:104DF0001CB5012140F22110FDF7C5F84FF4806089
:104E0000009001208DF8040000208DF8060003209A
:104E10008DF8050001208DF807006946CC48FCF7A5
:104E200011FE4FF40070009001208DF804008DF801
:104E3000060003208DF8050001208DF80700694663
:104E4000C448FCF7FFFD2020009001208DF80400ED
:104E500000208DF8060003208DF8050001208DF854
:104E600007006946BC48FCF7EDFD102000900120CA
:104E70008DF804008DF8060003208DF80500012050
:104E80008DF807006946B448FCF7DCFD0020B34903
:104E90000860012008740020087148748860C860A8
:104EA000AF490860012008740020087148748860C8
:104EB000C8601CBD0021AB4A1171114608607047E3
:104EC00010B503460C46A5480474407C012821D146
:104ED000A248006898420CDA0120A04908710846EF
:104EE0000068181AC860002088600A20FFF7E2FFF7
:104EF00058E09A480068984254DD002097490871AC
:104F000008460068C01AC860002088600A20FFF7C1
:104F1000D1FF47E09148407C002843D18F4800688A
:104F200098421DDA8D480079012809D18B49087112
:104F300008460068181A896808448849C86031E042
:104F40008648007970BB01208449087108460068D2
:104F5000181AC860002088601420FFF7ABFF21E01A
:104F60007E48006898421DDD7C48007950B90020D9
:104F70007A49087108460068C01A89680844774968
:104F8000C8600FE07548007901280BD100207349F3
:104F9000087108460068C01AC860002088601420A4
:104FA000FFF788FF10BD00216F4A1171114608609C
:104FB000704710B503460C4669480474407C0128CC
:104FC00021D16748006898420CDA012064490871D1
:104FD00008460068181AC860002088600A20FFF799
:104FE000E2FF58E05E480068984254DD00205C49CA
:104FF000087108460068C01AC860002088600A204E
:10500000FFF7D1FF47E05648407C002843D1544881
:10501000006898421DDA52480079012809D15049A8
:10502000087108460068181A896808444C49C86025
:1050300031E04B48007970BB0120494908710846AE
:105040000068181AC860002088601420FFF7ABFFC2
:1050500021E04348006898421DDD4148007950B97D
:1050600000203F49087108460068C01A8968084452
:105070003B49C8600FE03A48007901280BD1002075
:105080003749087108460068C01AC8600020886067
:105090001420FFF788FF10BD10B52DED048B3148AB
:1050A000006832490968B1FBF0F200FB1210C8B980
:1050B0002C480079642815DA2A480079401C2949CF
:1050C0000871087901F01AFD41EC190B1FEDE50B91
:1050D00053EC102B01F074FB41EC180B01F08AFA31
:1050E00020498860BDEC048B10BD10B52DED048BFC
:1050F0001D4800681D490968B1FBF0F200FB121061
:10510000C8B919480079642815DA17480079401C95
:1051100015490871087901F0F1FC41EC190B1FEDFC
:10512000F90B53EC102B01F04BFB41EC180B01F089
:1051300061FA0D498860BDEC048B10BD0000C843C6
:10514000F002002030020020A0010020E002002038
:105150000014024000200240000002400003002032
:1051600014030020C0020020D00200201C000020F8
:1051700010B52DED048BFE480068FE490968B1FBAF
:10518000F0F200FB1210C8B9F9480079642815DA6A
:10519000F7480079401CF6490871087901F0AEFC27
:1051A00041EC190B9FEDF40B53EC102B01F008FBB5
:1051B00041EC180B01F01EFAED498860BDEC048B40
:1051C00010BD10B52DED048BED480068E949096864
:1051D000B1FBF0F200FB1210C8B9E948007964286D
:1051E00015DAE7480079401CE5490871087901F0B3
:1051F00085FC41EC190B9FEDE00B53EC102B01F0FB
:10520000DFFA41EC180B01F0F5F9DD498860BDECDF
:10521000048B10BD10B5DB4A92ED020AF7EE000ACE
:1052200070EEC00A00EE100AB8EE400AB1EE041AA1
:1052300001EE200ABDEEC00A10EE102ACD4B1B680D
:10524000B3FBF2F402FB143202BBCF4A92688A42EB
:105250001DD20022CC4B5A74CC4A12680AB90122E2
:1052600000E00022C94B1A60C74A9268521CC64B24
:105270009A601A4612681B790BB9012300E00023DB
:105280005B00C3F101031A44BF4B1A6002E0012224
:10529000BD4B5A74BC4A1279BD4B1A6010BD10B593
:1052A000BC4A92ED020AF7EE000A70EEC00A00EE68
:1052B000100AB8EE400AB1EE041A01EE200ABDEE63
:1052C000C00A10EE102AAB4B1B68B3FBF2F402FBD2
:1052D000143202BBB04A92688A421DD20022AE4B01
:1052E0005A74AE4A12680AB9012200E00022AB4BA0
:1052F0001A60A94A9268521CA74B9A601A46126813
:105300001B790BB9012300E000235B00C3F101030B
:105310001A44A14B1A6002E001229F4B5A749E4A24
:1053200012799E4B1B1F1A6010BD10B5044604EB8A
:105330004401C1EBC41140F2DC52A2EBC100FBF707
:10534000EFFB6FF4D47161434FF41672A2EB41008E
:10535000FBF7D3FB10BD10B50446C4EB4411C1EB01
:10536000042140F2DC52A2EB8100FBF7AAFB10BD46
:10537000A0EB401101EB0111A1EBC011C1F10F0134
:1053800009B2874A1180A0EB401101EB0111A1EB9A
:10539000C011C1F10F0109B2824A11807047A0EB20
:1053A000401101EB0111A1EBC011C1F10F0109B2D4
:1053B0007D4A1180A0EB401101EB0111A1EBC0115E
:1053C000C1F10F0109B2794A118070477849414310
:1053D000C1F10F0109B2724A118075494143C1F10F
:1053E0000F0109B26F4A118071494143C1F10F01A8
:1053F00009B26D4A11806E494143C1F10F0109B2F2
:105400006A4A1180704710B540F29E2064490880B6
:1054100064490880644908806449088000BF654881
:10542000B0F9180040F2B2218842F8DB6248B0F9C6
:1054300018008842F3DB6148B0F918008842EEDBBF
:105440005F48B0F918008842E9DB4FF4FA70FBF7C7
:1054500067FB40F2AA50FBF750FB40F6C410FBF785
:1054600043FB01205749087000BF564800780028C8
:10547000FBD10F204C4908804C49088000BF4F48A1
:10548000B0F918000528FADC4D48B0F918000528D5
:10549000F5DC01204B49087000BF4A48007800281D
:1054A000FBD10120474908700F203D4908803D4944
:1054B000088000BF3F48B0F918000528FADC3E48D4
:1054C000B0F918000528F5DC4FF4E160FBF70CFBA0
:1054D00010BD10B50F20324908803249088032498A
:1054E00008803249088040F6C410FBF7FDFA00BF7F
:1054F0003048B0F918000A28FADC2F48B0F9180033
:105500000A28F5DC2D48B0F918000A28F0DC2C48F0
:10551000B0F918000A28EBDC01202A49087000BF06
:10552000284800780028FBD140F29E201E490880C0
:105530001E49088000BF2148B0F9180040F2B2218E
:105540008842F8DB1E48B0F918008842F3DB0120DE
:105550001C49087000BF1B4800780028FBD140F2AE
:105560009E200F4908800F49088000BF11482BE09A
:10557000E00200201C000020000000000000594054
:10558000F0020020C002002000030020A882424256
:10559000A4024442D002002014030020940240429E
:1055A0004400002046000020480000204A0000205F
:1055B0000DFDFFFF240100203E01002058010020C6
:1055C000720100204C000020B0F9180040F2B22116
:1055D0008842CBDB2248B0F918008842C6DB0120A4
:1055E0002049087000BF1F4800780028FBD10F2019
:1055F0001D4908801D4908801D4908801D490880F3
:1056000040F2DC50FBF78CFA4FF41670FBF775FA9A
:105610004FF4E160FBF768FA10BD40F29E2012499A
:10562000088012490880124908801249088000BF8A
:105630001148B0F9180040F2B7218842F8DB084859
:10564000B0F918008842F3DB0C48B0F91800884222
:10565000EEDB0B48B0F918008842E9DB7047000028
:105660003E0100204C0000204400002046000020A5
:10567000480000204A00002024010020580100209A
:10568000720100201CB501210846FCF77CFC4FF498
:105690008070009001208DF8040000208DF8060035
:1056A00003208DF8050001208DF807006946FE48AB
:1056B000FCF7C8F94FF48071FB48FCF73FFA1CBDBA
:1056C0000022FA4B1A600DE0F84A127841FA02F211
:1056D00002F00102F54B1B68C254F44A1268521CD6
:1056E000F24B1A60F14A1268082AEDDB7047C27863
:1056F000012A03D10288521C028001E000220280AC
:105700000288012A0BDD0288642A05DAC278012AA0
:1057100007D131B9827004E00222827001E00022D8
:105720008270C170704710B50446E148C07810BB64
:10573000012C20D10120FFF71BFE0120FFF72FFED7
:105740000120FFF7F2FD40F6C410FBF7CDF9D94870
:10575000007980B9D748007908B9012000E000201D
:10576000D44908710879FFF7F6FDD2480079C007DF
:10577000000ED1490870CE48C078012822D10CBB58
:105780000020FFF7F5FD0020FFF709FE0020FFF7DE
:10579000CCFD4FF4E160FBF7A7F9C648007901287A
:1057A00010D1C448007908B9012000E00020C149A7
:1057B00008710879FFF7CFFDBE480079C007000ED9
:1057C000BD490870BA48C47010BD10B504462146E2
:1057D000BA48FFF78CFFB9488078012802D0022828
:1057E0000ED106E0B648006810B90120FFF7C0FDF1
:1057F00006E00120FFF7EAFD0020B249487200BF31
:1058000000BF10BD10B504462146AF48FFF76FFF3B
:10581000AD488078012802D0022808D106E0A848C7
:10582000006810B90020FFF7A3FD00E000BF00BF33
:1058300010BD10B504462146A448FFF758FFA34801
:105840008078012802D002280ED106E09C4800682A
:1058500010B90120FFF7A3FD06E00120FFF7B6FD18
:1058600000209849487200BF00BF10BD10B5044623
:1058700021469748FFF73BFF95488078012802D0E2
:10588000022808D106E08E48006810B90020FFF712
:1058900086FD00E000BF00BF10BD10B504462146E4
:1058A0008C48FFF724FF8B488078012802D002281B
:1058B0000AD104E040F6C410FBF716F904E04FF4F7
:1058C000E160FBF711F900BF00BF10BD00B5034652
:1058D00019468148FFF70BFF7F488078012802D0E6
:1058E000022825D109E07248C078012801D17B49FE
:1058F00008600020784908711AE07948B0F918006A
:105900007849B1F9181008447749B1F918100844DA
:105910007649B1F918100844A0F6084010F1280F94
:1059200005DD00206D49086001206B49087100BF4A
:1059300000BF00BD10B5044621465E48FFF7D7FE04
:105940006B48C07901281AD15A488078012802D0C2
:10595000022813D111E05748007908B9012000E06E
:105960000020544908710879FFF7F5FC5148007987
:10597000C007000E5049087000E000BF1AE04D4813
:105980008078012802D0022813D10EE0494800791E
:1059900008B9012000E00020464908710879FFF7A6
:1059A000DAFC01204D49086003E000204B49086003
:1059B00000BF00BF10BD43480079A8B94148807AB4
:1059C000012811D13F48417A801D405C4949087047
:1059D0003C48407A401C3B4948720846407A0228BD
:1059E00008DD0020487205E03B48007910B900202E
:1059F000404908703348807A32490871704710B5C1
:105A0000044614B1012C14D114E000202D49C872B1
:105A10000320487101210020FFF7CBFA36480068C7
:105A200038B94FF47A70FBF71DF901210020FFF718
:105A300047FACEE02A48B0F918002A49B1F91810FF
:105A400008442949B1F9181008442849B1F9181037
:105A50000844A0F6084010F1280F7DDD18480068C2
:105A600042F6F821884203DD40F2D660FBF7FAF8EF
:105A700014484079002870D001284ED0032802D065
:105A8000042849D158E0022145F2F050FFF718FAF6
:105A90000B48006845F2F05188423DD10949C97A66
:105AA00041F27072931029E000000240940000203F
:105AB0008A00002084000020910000206000002067
:105AC0000003002028030020660000206C00002056
:105AD00072000020780000207E000020A0024042DA
